{
  "contractName": "Administrators",
  "abi": [
    {
      "constant": true,
      "inputs": [
        {
          "name": "",
          "type": "address"
        }
      ],
      "name": "administrators",
      "outputs": [
        {
          "name": "",
          "type": "bool"
        }
      ],
      "payable": false,
      "stateMutability": "view",
      "type": "function"
    },
    {
      "inputs": [],
      "payable": false,
      "stateMutability": "nonpayable",
      "type": "constructor"
    },
    {
      "anonymous": false,
      "inputs": [
        {
          "indexed": false,
          "name": "_address",
          "type": "address"
        }
      ],
      "name": "LogNewAdmin",
      "type": "event"
    },
    {
      "anonymous": false,
      "inputs": [
        {
          "indexed": false,
          "name": "_address",
          "type": "address"
        }
      ],
      "name": "LogRemovedAdmin",
      "type": "event"
    },
    {
      "constant": true,
      "inputs": [],
      "name": "getOwner",
      "outputs": [
        {
          "name": "",
          "type": "address"
        }
      ],
      "payable": false,
      "stateMutability": "view",
      "type": "function"
    },
    {
      "constant": false,
      "inputs": [
        {
          "name": "_address",
          "type": "address"
        }
      ],
      "name": "addAdmin",
      "outputs": [],
      "payable": false,
      "stateMutability": "nonpayable",
      "type": "function"
    },
    {
      "constant": false,
      "inputs": [
        {
          "name": "_address",
          "type": "address"
        }
      ],
      "name": "removeAdmin",
      "outputs": [],
      "payable": false,
      "stateMutability": "nonpayable",
      "type": "function"
    },
    {
      "constant": false,
      "inputs": [],
      "name": "stopContract",
      "outputs": [],
      "payable": false,
      "stateMutability": "nonpayable",
      "type": "function"
    },
    {
      "constant": false,
      "inputs": [],
      "name": "resumeContract",
      "outputs": [],
      "payable": false,
      "stateMutability": "nonpayable",
      "type": "function"
    }
  ],
  "bytecode": "0x60806040526000600260006101000a81548160ff02191690831515021790555034801561002b57600080fd5b50336000806101000a81548173ffffffffffffffffffffffffffffffffffffffff021916908373ffffffffffffffffffffffffffffffffffffffff16021790555060018060003373ffffffffffffffffffffffffffffffffffffffff1673ffffffffffffffffffffffffffffffffffffffff16815260200190815260200160002060006101000a81548160ff02191690831515021790555061067b806100d26000396000f300608060405260043610610078576000357c0100000000000000000000000000000000000000000000000000000000900463ffffffff16806312253a6c1461007d5780631785f53c1461009457806370480275146100d757806376be15851461011a578063893d20e814610175578063c4bc5da5146101cc575b600080fd5b34801561008957600080fd5b506100926101e3565b005b3480156100a057600080fd5b506100d5600480360381019080803573ffffffffffffffffffffffffffffffffffffffff16906020019092919050505061025b565b005b3480156100e357600080fd5b50610118600480360381019080803573ffffffffffffffffffffffffffffffffffffffff1690602001909291905050506103f5565b005b34801561012657600080fd5b5061015b600480360381019080803573ffffffffffffffffffffffffffffffffffffffff16906020019092919050505061058e565b604051808215151515815260200191505060405180910390f35b34801561018157600080fd5b5061018a6105ae565b604051808273ffffffffffffffffffffffffffffffffffffffff1673ffffffffffffffffffffffffffffffffffffffff16815260200191505060405180910390f35b3480156101d857600080fd5b506101e16105d7565b005b6000809054906101000a900473ffffffffffffffffffffffffffffffffffffffff1673ffffffffffffffffffffffffffffffffffffffff163373ffffffffffffffffffffffffffffffffffffffff1614151561023e57600080fd5b6001600260006101000a81548160ff021916908315150217905550565b6000809054906101000a900473ffffffffffffffffffffffffffffffffffffffff1673ffffffffffffffffffffffffffffffffffffffff163373ffffffffffffffffffffffffffffffffffffffff161415156102b657600080fd5b60001515600260009054906101000a900460ff1615151415156102d857600080fd5b60011515600160008373ffffffffffffffffffffffffffffffffffffffff1673ffffffffffffffffffffffffffffffffffffffff16815260200190815260200160002060009054906101000a900460ff16151514151561033757600080fd5b6000600160008373ffffffffffffffffffffffffffffffffffffffff1673ffffffffffffffffffffffffffffffffffffffff16815260200190815260200160002060006101000a81548160ff0219169083151502179055507fe6e9128d95298888c459545040e07936d4c97dd2fea5e367bd1bfb7d90b6cf8281604051808273ffffffffffffffffffffffffffffffffffffffff1673ffffffffffffffffffffffffffffffffffffffff16815260200191505060405180910390a150565b6000809054906101000a900473ffffffffffffffffffffffffffffffffffffffff1673ffffffffffffffffffffffffffffffffffffffff163373ffffffffffffffffffffffffffffffffffffffff1614151561045057600080fd5b60001515600260009054906101000a900460ff16151514151561047257600080fd5b60001515600160008373ffffffffffffffffffffffffffffffffffffffff1673ffffffffffffffffffffffffffffffffffffffff16815260200190815260200160002060009054906101000a900460ff1615151415156104d157600080fd5b60018060008373ffffffffffffffffffffffffffffffffffffffff1673ffffffffffffffffffffffffffffffffffffffff16815260200190815260200160002060006101000a81548160ff0219169083151502179055507f39e7d4b9ba48f55a740a5192809dbc498fa12724c030b37dab126a3f6774c0f381604051808273ffffffffffffffffffffffffffffffffffffffff1673ffffffffffffffffffffffffffffffffffffffff16815260200191505060405180910390a150565b60016020528060005260406000206000915054906101000a900460ff1681565b60008060009054906101000a900473ffffffffffffffffffffffffffffffffffffffff16905090565b6000809054906101000a900473ffffffffffffffffffffffffffffffffffffffff1673ffffffffffffffffffffffffffffffffffffffff163373ffffffffffffffffffffffffffffffffffffffff1614151561063257600080fd5b6000600260006101000a81548160ff0219169083151502179055505600a165627a7a72305820c695189d33c9f200fc1f31d737d130a0799d45f061044ffa2bc057ef2704c9e70029",
  "source": "pragma solidity ^0.4.24;\n\n\nimport \"own3d/owned.sol\";\n\n\ncontract Administrators is owned {\n    mapping(address => bool) public administrators;\n\n    bool isStopped = false;\n\n    event LogNewAdmin(address _address);\n    event LogRemovedAdmin(address _address);\n\n    modifier administratorsOnly() {\n        require(administrators[msg.sender] == true);\n        _;\n    }\n    \n    modifier onlyWhenNotStopped {\n        require(isStopped == false);\n        _;\n    }\n\n    constructor() public {\n        /* Add the contract creator to the admin */\n        administrators[msg.sender] = true;\n    }\n\n    function getOwner() external view returns(address) {\n        return owner;\n    }\n\n    function addAdmin(address _address) public onlyowner onlyWhenNotStopped {\n        require(administrators[_address] == false);\n        administrators[_address] = true;\n        emit LogNewAdmin(_address);\n    }\n\n    function removeAdmin(address _address) public onlyowner onlyWhenNotStopped {\n        require(administrators[_address] == true);\n        administrators[_address] = false;\n        emit LogRemovedAdmin(_address);\n    }\n\n    function stopContract() public onlyowner {\n        isStopped = true;\n    }\n\n    function resumeContract() public onlyowner {\n        isStopped = false;\n    }\n}",
  "sourcePath": "/Users/cleary/crypto_course/ethereum-storefront/contracts/Administrators.sol",
  "compiler": {
    "name": "solc",
    "version": "0.4.24+commit.e67f0147.Emscripten.clang"
  },
  "schemaVersion": "2.0.1",
  "updatedAt": "2018-08-28T01:16:23.696Z"
}