{
  "contractName": "ProductFactory",
  "abi": [
    {
      "constant": true,
      "inputs": [
        {
          "name": "",
          "type": "address"
        }
      ],
      "name": "storeOwners",
      "outputs": [
        {
          "name": "",
          "type": "bool"
        }
      ],
      "payable": false,
      "stateMutability": "view",
      "type": "function"
    },
    {
      "constant": false,
      "inputs": [],
      "name": "stopContract",
      "outputs": [],
      "payable": false,
      "stateMutability": "nonpayable",
      "type": "function"
    },
    {
      "constant": false,
      "inputs": [
        {
          "name": "_address",
          "type": "address"
        }
      ],
      "name": "removeAdmin",
      "outputs": [],
      "payable": false,
      "stateMutability": "nonpayable",
      "type": "function"
    },
    {
      "constant": true,
      "inputs": [
        {
          "name": "",
          "type": "uint256"
        }
      ],
      "name": "storeToOwner",
      "outputs": [
        {
          "name": "",
          "type": "address"
        }
      ],
      "payable": false,
      "stateMutability": "view",
      "type": "function"
    },
    {
      "constant": false,
      "inputs": [
        {
          "name": "_address",
          "type": "address"
        }
      ],
      "name": "removeStoreOwner",
      "outputs": [],
      "payable": false,
      "stateMutability": "nonpayable",
      "type": "function"
    },
    {
      "constant": true,
      "inputs": [
        {
          "name": "",
          "type": "address"
        },
        {
          "name": "",
          "type": "uint256"
        }
      ],
      "name": "customerToReceipts",
      "outputs": [
        {
          "name": "exists",
          "type": "bool"
        },
        {
          "name": "storeId",
          "type": "uint256"
        },
        {
          "name": "productId",
          "type": "uint256"
        },
        {
          "name": "pricePerProduct",
          "type": "uint256"
        },
        {
          "name": "blockNumber",
          "type": "uint256"
        }
      ],
      "payable": false,
      "stateMutability": "view",
      "type": "function"
    },
    {
      "constant": false,
      "inputs": [
        {
          "name": "_address",
          "type": "address"
        }
      ],
      "name": "addAdmin",
      "outputs": [],
      "payable": false,
      "stateMutability": "nonpayable",
      "type": "function"
    },
    {
      "constant": true,
      "inputs": [
        {
          "name": "",
          "type": "address"
        }
      ],
      "name": "administrators",
      "outputs": [
        {
          "name": "",
          "type": "bool"
        }
      ],
      "payable": false,
      "stateMutability": "view",
      "type": "function"
    },
    {
      "constant": true,
      "inputs": [
        {
          "name": "",
          "type": "uint256"
        },
        {
          "name": "",
          "type": "uint256"
        }
      ],
      "name": "storeToProducts",
      "outputs": [
        {
          "name": "price",
          "type": "uint256"
        },
        {
          "name": "quantity",
          "type": "uint256"
        },
        {
          "name": "exists",
          "type": "bool"
        }
      ],
      "payable": false,
      "stateMutability": "view",
      "type": "function"
    },
    {
      "constant": true,
      "inputs": [
        {
          "name": "_storeId",
          "type": "uint256"
        }
      ],
      "name": "getStore",
      "outputs": [
        {
          "name": "",
          "type": "bool"
        },
        {
          "name": "",
          "type": "uint256"
        }
      ],
      "payable": false,
      "stateMutability": "view",
      "type": "function"
    },
    {
      "constant": true,
      "inputs": [],
      "name": "getOwner",
      "outputs": [
        {
          "name": "",
          "type": "address"
        }
      ],
      "payable": false,
      "stateMutability": "view",
      "type": "function"
    },
    {
      "constant": false,
      "inputs": [
        {
          "name": "_address",
          "type": "address"
        }
      ],
      "name": "addStoreOwner",
      "outputs": [],
      "payable": false,
      "stateMutability": "nonpayable",
      "type": "function"
    },
    {
      "constant": false,
      "inputs": [],
      "name": "resumeContract",
      "outputs": [],
      "payable": false,
      "stateMutability": "nonpayable",
      "type": "function"
    },
    {
      "constant": true,
      "inputs": [
        {
          "name": "",
          "type": "uint256"
        }
      ],
      "name": "stores",
      "outputs": [
        {
          "name": "exists",
          "type": "bool"
        },
        {
          "name": "balance",
          "type": "uint256"
        }
      ],
      "payable": false,
      "stateMutability": "view",
      "type": "function"
    },
    {
      "constant": false,
      "inputs": [],
      "name": "createStore",
      "outputs": [],
      "payable": false,
      "stateMutability": "nonpayable",
      "type": "function"
    },
    {
      "anonymous": false,
      "inputs": [
        {
          "indexed": false,
          "name": "_storeId",
          "type": "uint256"
        },
        {
          "indexed": false,
          "name": "_productId",
          "type": "uint256"
        }
      ],
      "name": "LogNewProduct",
      "type": "event"
    },
    {
      "anonymous": false,
      "inputs": [
        {
          "indexed": false,
          "name": "_storeId",
          "type": "uint256"
        },
        {
          "indexed": false,
          "name": "_productId",
          "type": "uint256"
        }
      ],
      "name": "LogProductUpdate",
      "type": "event"
    },
    {
      "anonymous": false,
      "inputs": [
        {
          "indexed": false,
          "name": "_storeId",
          "type": "uint256"
        },
        {
          "indexed": false,
          "name": "_productId",
          "type": "uint256"
        },
        {
          "indexed": false,
          "name": "_receiptId",
          "type": "uint256"
        },
        {
          "indexed": false,
          "name": "_address",
          "type": "address"
        }
      ],
      "name": "LogProductPurchase",
      "type": "event"
    },
    {
      "anonymous": false,
      "inputs": [
        {
          "indexed": false,
          "name": "_storeId",
          "type": "uint256"
        }
      ],
      "name": "LogNewStore",
      "type": "event"
    },
    {
      "anonymous": false,
      "inputs": [
        {
          "indexed": false,
          "name": "_address",
          "type": "address"
        }
      ],
      "name": "LogNewStoreOwner",
      "type": "event"
    },
    {
      "anonymous": false,
      "inputs": [
        {
          "indexed": false,
          "name": "_address",
          "type": "address"
        }
      ],
      "name": "LogRemovedStoreOwner",
      "type": "event"
    },
    {
      "anonymous": false,
      "inputs": [
        {
          "indexed": false,
          "name": "_address",
          "type": "address"
        }
      ],
      "name": "LogNewAdmin",
      "type": "event"
    },
    {
      "anonymous": false,
      "inputs": [
        {
          "indexed": false,
          "name": "_address",
          "type": "address"
        }
      ],
      "name": "LogRemovedAdmin",
      "type": "event"
    },
    {
      "constant": true,
      "inputs": [
        {
          "name": "_storeId",
          "type": "uint256"
        },
        {
          "name": "_productId",
          "type": "uint256"
        }
      ],
      "name": "getProduct",
      "outputs": [
        {
          "name": "_price",
          "type": "uint256"
        },
        {
          "name": "_quantity",
          "type": "uint256"
        }
      ],
      "payable": false,
      "stateMutability": "view",
      "type": "function"
    },
    {
      "constant": true,
      "inputs": [
        {
          "name": "_address",
          "type": "address"
        },
        {
          "name": "_receiptId",
          "type": "uint256"
        }
      ],
      "name": "getReceipt",
      "outputs": [
        {
          "name": "_storeId",
          "type": "uint256"
        },
        {
          "name": "_productId",
          "type": "uint256"
        },
        {
          "name": "_pricePerProduct",
          "type": "uint256"
        },
        {
          "name": "_blockNumber",
          "type": "uint256"
        }
      ],
      "payable": false,
      "stateMutability": "view",
      "type": "function"
    },
    {
      "constant": false,
      "inputs": [
        {
          "name": "_storeId",
          "type": "uint256"
        },
        {
          "name": "_price",
          "type": "uint256"
        },
        {
          "name": "_quantity",
          "type": "uint256"
        }
      ],
      "name": "addProduct",
      "outputs": [],
      "payable": false,
      "stateMutability": "nonpayable",
      "type": "function"
    },
    {
      "constant": false,
      "inputs": [
        {
          "name": "_storeId",
          "type": "uint256"
        },
        {
          "name": "_productId",
          "type": "uint256"
        },
        {
          "name": "_newPrice",
          "type": "uint256"
        },
        {
          "name": "_newQuantity",
          "type": "uint256"
        }
      ],
      "name": "editProduct",
      "outputs": [],
      "payable": false,
      "stateMutability": "nonpayable",
      "type": "function"
    },
    {
      "constant": false,
      "inputs": [
        {
          "name": "_storeId",
          "type": "uint256"
        },
        {
          "name": "_productId",
          "type": "uint256"
        }
      ],
      "name": "buyProduct",
      "outputs": [],
      "payable": true,
      "stateMutability": "payable",
      "type": "function"
    }
  ],
  "bytecode": "0x60806040526000600260006101000a81548160ff021916908315150217905550336000806101000a81548173ffffffffffffffffffffffffffffffffffffffff021916908373ffffffffffffffffffffffffffffffffffffffff16021790555060018060003373ffffffffffffffffffffffffffffffffffffffff1673ffffffffffffffffffffffffffffffffffffffff16815260200190815260200160002060006101000a81548160ff0219169083151502179055506001600360003373ffffffffffffffffffffffffffffffffffffffff1673ffffffffffffffffffffffffffffffffffffffff16815260200190815260200160002060006101000a81548160ff021916908315150217905550611ca48061011d6000396000f300608060405260043610610112576000357c0100000000000000000000000000000000000000000000000000000000900463ffffffff168063057cc2a11461011757806312253a6c146101725780631785f53c1461018957806324f346ab146101cc5780633148e2cb1461021e57806353b628661461028b5780636174fdd1146102b55780636b4bdec8146102f8578063704802751461037957806376be1585146103bc57806381bc4f94146104175780638340312014610474578063893d20e8146104c05780639937b38f146105175780639adeb5f1146105585780639c4560251461059b578063bae18880146105e6578063c4bc5da51461065c578063e8a59cd814610673578063fb122ac8146106bf575b600080fd5b34801561012357600080fd5b50610158600480360381019080803573ffffffffffffffffffffffffffffffffffffffff1690602001909291905050506106d6565b604051808215151515815260200191505060405180910390f35b34801561017e57600080fd5b506101876106f6565b005b34801561019557600080fd5b506101ca600480360381019080803573ffffffffffffffffffffffffffffffffffffffff16906020019092919050505061076e565b005b3480156101d857600080fd5b506102016004803603810190808035906020019092919080359060200190929190505050610908565b604051808381526020018281526020019250505060405180910390f35b34801561022a57600080fd5b5061024960048036038101908080359060200190929190505050610a0b565b604051808273ffffffffffffffffffffffffffffffffffffffff1673ffffffffffffffffffffffffffffffffffffffff16815260200191505060405180910390f35b6102b36004803603810190808035906020019092919080359060200190929190505050610a3e565b005b3480156102c157600080fd5b506102f6600480360381019080803573ffffffffffffffffffffffffffffffffffffffff169060200190929190505050610d7f565b005b34801561030457600080fd5b50610343600480360381019080803573ffffffffffffffffffffffffffffffffffffffff16906020019092919080359060200190929190505050610f1d565b60405180861515151581526020018581526020018481526020018381526020018281526020019550505050505060405180910390f35b34801561038557600080fd5b506103ba600480360381019080803573ffffffffffffffffffffffffffffffffffffffff169060200190929190505050610f7c565b005b3480156103c857600080fd5b506103fd600480360381019080803573ffffffffffffffffffffffffffffffffffffffff169060200190929190505050611115565b604051808215151515815260200191505060405180910390f35b34801561042357600080fd5b5061044c6004803603810190808035906020019092919080359060200190929190505050611135565b6040518084815260200183815260200182151515158152602001935050505060405180910390f35b34801561048057600080fd5b5061049f60048036038101908080359060200190929190505050611188565b60405180831515151581526020018281526020019250505060405180910390f35b3480156104cc57600080fd5b506104d5611219565b604051808273ffffffffffffffffffffffffffffffffffffffff1673ffffffffffffffffffffffffffffffffffffffff16815260200191505060405180910390f35b34801561052357600080fd5b50610556600480360381019080803590602001909291908035906020019092919080359060200190929190505050611242565b005b34801561056457600080fd5b50610599600480360381019080803573ffffffffffffffffffffffffffffffffffffffff169060200190929190505050611432565b005b3480156105a757600080fd5b506105e4600480360381019080803590602001909291908035906020019092919080359060200190929190803590602001909291905050506115d0565b005b3480156105f257600080fd5b50610631600480360381019080803573ffffffffffffffffffffffffffffffffffffffff169060200190929190803590602001909291905050506117b0565b6040518085815260200184815260200183815260200182815260200194505050505060405180910390f35b34801561066857600080fd5b506106716119bc565b005b34801561067f57600080fd5b5061069e60048036038101908080359060200190929190505050611a34565b60405180831515151581526020018281526020019250505060405180910390f35b3480156106cb57600080fd5b506106d4611a74565b005b60036020528060005260406000206000915054906101000a900460ff1681565b6000809054906101000a900473ffffffffffffffffffffffffffffffffffffffff1673ffffffffffffffffffffffffffffffffffffffff163373ffffffffffffffffffffffffffffffffffffffff1614151561075157600080fd5b6001600260006101000a81548160ff021916908315150217905550565b6000809054906101000a900473ffffffffffffffffffffffffffffffffffffffff1673ffffffffffffffffffffffffffffffffffffffff163373ffffffffffffffffffffffffffffffffffffffff161415156107c957600080fd5b60001515600260009054906101000a900460ff1615151415156107eb57600080fd5b60011515600160008373ffffffffffffffffffffffffffffffffffffffff1673ffffffffffffffffffffffffffffffffffffffff16815260200190815260200160002060009054906101000a900460ff16151514151561084a57600080fd5b6000600160008373ffffffffffffffffffffffffffffffffffffffff1673ffffffffffffffffffffffffffffffffffffffff16815260200190815260200160002060006101000a81548160ff0219169083151502179055507fe6e9128d95298888c459545040e07936d4c97dd2fea5e367bd1bfb7d90b6cf8281604051808273ffffffffffffffffffffffffffffffffffffffff1673ffffffffffffffffffffffffffffffffffffffff16815260200191505060405180910390a150565b6000806001151560048581548110151561091e57fe5b906000526020600020906002020160000160009054906101000a900460ff16151514151561094b57600080fd5b60011515600660008681526020019081526020016000208481548110151561096f57fe5b906000526020600020906003020160020160009054906101000a900460ff16151514151561099c57600080fd5b60066000858152602001908152602001600020838154811015156109bc57fe5b906000526020600020906003020160000154915060066000858152602001908152602001600020838154811015156109f057fe5b90600052602060002090600302016001015490509250929050565b60056020528060005260406000206000915054906101000a900473ffffffffffffffffffffffffffffffffffffffff1681565b610a46611c06565b6000801515600260009054906101000a900460ff161515141515610a6957600080fd5b60011515600485815481101515610a7c57fe5b906000526020600020906002020160000160009054906101000a900460ff161515141515610aa957600080fd5b600115156006600086815260200190815260200160002084815481101515610acd57fe5b906000526020600020906003020160020160009054906101000a900460ff161515141515610afa57600080fd5b60006006600086815260200190815260200160002084815481101515610b1c57fe5b906000526020600020906003020160010154111515610b3a57600080fd5b346006600086815260200190815260200160002084815481101515610b5b57fe5b906000526020600020906003020160000154141515610b7957600080fd5b60a0604051908101604052806001151581526020018581526020018481526020016006600087815260200190815260200160002085815481101515610bba57fe5b9060005260206000209060030201600001548152602001438152509150600760003373ffffffffffffffffffffffffffffffffffffffff1673ffffffffffffffffffffffffffffffffffffffff168152602001908152602001600020829080600181540180825580915050906001820390600052602060002090600502016000909192909190915060008201518160000160006101000a81548160ff02191690831515021790555060208201518160010155604082015181600201556060820151816003015560808201518160040155505090506006600085815260200190815260200160002083815481101515610cae57fe5b9060005260206000209060030201600101600081548092919060019003919050555034600485815481101515610ce057fe5b9060005260206000209060020201600101600082825401925050819055507fdaa686e23a0718913ef1083d999609ae3ae4a27debbdc01bd4011c1995f36fd284848333604051808581526020018481526020018381526020018273ffffffffffffffffffffffffffffffffffffffff1673ffffffffffffffffffffffffffffffffffffffff16815260200194505050505060405180910390a150505050565b60011515600160003373ffffffffffffffffffffffffffffffffffffffff1673ffffffffffffffffffffffffffffffffffffffff16815260200190815260200160002060009054906101000a900460ff161515141515610dde57600080fd5b60001515600260009054906101000a900460ff161515141515610e0057600080fd5b60011515600360008373ffffffffffffffffffffffffffffffffffffffff1673ffffffffffffffffffffffffffffffffffffffff16815260200190815260200160002060009054906101000a900460ff161515141515610e5f57600080fd5b6000600360008373ffffffffffffffffffffffffffffffffffffffff1673ffffffffffffffffffffffffffffffffffffffff16815260200190815260200160002060006101000a81548160ff0219169083151502179055507ff1b2b512c5f52c061ca1eefd87b94a5fffa403e06bdf7ac2301e7ea6f5e6b88a81604051808273ffffffffffffffffffffffffffffffffffffffff1673ffffffffffffffffffffffffffffffffffffffff16815260200191505060405180910390a150565b600760205281600052604060002081815481101515610f3857fe5b9060005260206000209060050201600091509150508060000160009054906101000a900460ff16908060010154908060020154908060030154908060040154905085565b6000809054906101000a900473ffffffffffffffffffffffffffffffffffffffff1673ffffffffffffffffffffffffffffffffffffffff163373ffffffffffffffffffffffffffffffffffffffff16141515610fd757600080fd5b60001515600260009054906101000a900460ff161515141515610ff957600080fd5b60001515600160008373ffffffffffffffffffffffffffffffffffffffff1673ffffffffffffffffffffffffffffffffffffffff16815260200190815260200160002060009054906101000a900460ff16151514151561105857600080fd5b60018060008373ffffffffffffffffffffffffffffffffffffffff1673ffffffffffffffffffffffffffffffffffffffff16815260200190815260200160002060006101000a81548160ff0219169083151502179055507f39e7d4b9ba48f55a740a5192809dbc498fa12724c030b37dab126a3f6774c0f381604051808273ffffffffffffffffffffffffffffffffffffffff1673ffffffffffffffffffffffffffffffffffffffff16815260200191505060405180910390a150565b60016020528060005260406000206000915054906101000a900460ff1681565b60066020528160005260406000208181548110151561115057fe5b9060005260206000209060030201600091509150508060000154908060010154908060020160009054906101000a900460ff16905083565b600080611193611c38565b600084101515156111a357600080fd5b600480549050841015156111b657600080fd5b6004848154811015156111c557fe5b90600052602060002090600202016040805190810160405290816000820160009054906101000a900460ff161515151581526020016001820154815250509050806000015181602001519250925050915091565b60008060009054906101000a900473ffffffffffffffffffffffffffffffffffffffff16905090565b61124a611c54565b6000846000811015151561125d57600080fd5b3373ffffffffffffffffffffffffffffffffffffffff166005600083815260200190815260200160002060009054906101000a900473ffffffffffffffffffffffffffffffffffffffff1673ffffffffffffffffffffffffffffffffffffffff161415156112ca57600080fd5b600115156004828154811015156112dd57fe5b906000526020600020906002020160000160009054906101000a900460ff16151514151561130a57600080fd5b84846000821015151561131c57600080fd5b6000811015151561132c57600080fd5b60001515600260009054906101000a900460ff16151514151561134e57600080fd5b6060604051908101604052808881526020018781526020016001151581525094506001600660008a81526020019081526020016000208690806001815401808255809150509060018203906000526020600020906003020160009091929091909150600082015181600001556020820151816001015560408201518160020160006101000a81548160ff02191690831515021790555050500393507fcc2f6643bdbf63882380ab3c050cc30a624ac5b4bc3645e5d308d1029bbaa7098885604051808381526020018281526020019250505060405180910390a15050505050505050565b60011515600160003373ffffffffffffffffffffffffffffffffffffffff1673ffffffffffffffffffffffffffffffffffffffff16815260200190815260200160002060009054906101000a900460ff16151514151561149157600080fd5b60001515600260009054906101000a900460ff1615151415156114b357600080fd5b60001515600360008373ffffffffffffffffffffffffffffffffffffffff1673ffffffffffffffffffffffffffffffffffffffff16815260200190815260200160002060009054906101000a900460ff16151514151561151257600080fd5b6001600360008373ffffffffffffffffffffffffffffffffffffffff1673ffffffffffffffffffffffffffffffffffffffff16815260200190815260200160002060006101000a81548160ff0219169083151502179055507f64a6cb4c2615e9c9ee211131f9fc94aaa6238a3c255423b75ba43ef01ca42dcd81604051808273ffffffffffffffffffffffffffffffffffffffff1673ffffffffffffffffffffffffffffffffffffffff16815260200191505060405180910390a150565b600084600081101515156115e357600080fd5b3373ffffffffffffffffffffffffffffffffffffffff166005600083815260200190815260200160002060009054906101000a900473ffffffffffffffffffffffffffffffffffffffff1673ffffffffffffffffffffffffffffffffffffffff1614151561165057600080fd5b6001151560048281548110151561166357fe5b906000526020600020906002020160000160009054906101000a900460ff16151514151561169057600080fd5b8383600082101515156116a257600080fd5b600081101515156116b257600080fd5b60001515600260009054906101000a900460ff1615151415156116d457600080fd5b60011515600660008a8152602001908152602001600020888154811015156116f857fe5b906000526020600020906003020160020160009054906101000a900460ff16151514151561172557600080fd5b600660008981526020019081526020016000208781548110151561174557fe5b906000526020600020906003020193508584600001819055508484600101819055507fba7f13844d8753c081d55cfeb4062a794faf80eb72a87cab6d2ab49913e892468888604051808381526020018281526020019250505060405180910390a15050505050505050565b60008060008060011515600760008873ffffffffffffffffffffffffffffffffffffffff1673ffffffffffffffffffffffffffffffffffffffff1681526020019081526020016000208681548110151561180657fe5b906000526020600020906005020160000160009054906101000a900460ff16151514151561183357600080fd5b600760008773ffffffffffffffffffffffffffffffffffffffff1673ffffffffffffffffffffffffffffffffffffffff1681526020019081526020016000208581548110151561187f57fe5b9060005260206000209060050201600101549350600760008773ffffffffffffffffffffffffffffffffffffffff1673ffffffffffffffffffffffffffffffffffffffff168152602001908152602001600020858154811015156118df57fe5b9060005260206000209060050201600201549250600760008773ffffffffffffffffffffffffffffffffffffffff1673ffffffffffffffffffffffffffffffffffffffff1681526020019081526020016000208581548110151561193f57fe5b9060005260206000209060050201600301549150600760008773ffffffffffffffffffffffffffffffffffffffff1673ffffffffffffffffffffffffffffffffffffffff1681526020019081526020016000208581548110151561199f57fe5b906000526020600020906005020160040154905092959194509250565b6000809054906101000a900473ffffffffffffffffffffffffffffffffffffffff1673ffffffffffffffffffffffffffffffffffffffff163373ffffffffffffffffffffffffffffffffffffffff16141515611a1757600080fd5b6000600260006101000a81548160ff021916908315150217905550565b600481815481101515611a4357fe5b90600052602060002090600202016000915090508060000160009054906101000a900460ff16908060010154905082565b611a7c611c38565b600060011515600360003373ffffffffffffffffffffffffffffffffffffffff1673ffffffffffffffffffffffffffffffffffffffff16815260200190815260200160002060009054906101000a900460ff161515141515611add57600080fd5b60001515600260009054906101000a900460ff161515141515611aff57600080fd5b60408051908101604052806001151581526020016000815250915060016004839080600181540180825580915050906001820390600052602060002090600202016000909192909190915060008201518160000160006101000a81548160ff021916908315150217905550602082015181600101555050039050336005600083815260200190815260200160002060006101000a81548173ffffffffffffffffffffffffffffffffffffffff021916908373ffffffffffffffffffffffffffffffffffffffff1602179055507f83c4d69ac27380ce5274b606711fc65fdde6fd6546fccaf0c2623399fad92f40816040518082815260200191505060405180910390a15050565b60a060405190810160405280600015158152602001600081526020016000815260200160008152602001600081525090565b6040805190810160405280600015158152602001600081525090565b606060405190810160405280600081526020016000815260200160001515815250905600a165627a7a7230582078622f40f07205155ffd6113c3b1fb7cd3221c6b24138782d4ddbb46b7f24dfe0029",
  "source": "pragma solidity ^0.4.24;\nimport \"./StoreFactory.sol\";\n\n\ncontract ProductFactory is StoreFactory {\n\n    struct Product {\n        uint price;\n        uint quantity;\n        bool exists;\n    }\n\n    struct Receipt {\n        bool exists;\n        uint storeId;\n        uint productId;\n        uint pricePerProduct;\n        uint blockNumber;\n    }\n\n    mapping(uint => Product[]) public storeToProducts;\n    mapping(address => Receipt[]) public customerToReceipts;\n\n    modifier validProduct(uint _price, uint _quantity) {\n        require(_price >= 0);\n        require(_quantity >= 0); \n        _;\n    }\n\n    /* modifier checkValue(uint _sku) {\n        _;\n        uint _price = items[_sku].price;\n        uint amountToRefund = msg.value - _price;\n        items[_sku].buyer.transfer(amountToRefund);\n    } \n    */\n    event LogNewProduct(uint _storeId, uint _productId);\n    event LogProductUpdate(uint _storeId, uint _productId);\n    event LogProductPurchase(uint _storeId, uint _productId, uint _receiptId, address _address);\n\n    function getProduct(uint _storeId, uint _productId) external view returns(uint _price, uint _quantity) {\n        require(stores[_storeId].exists == true); //Store exists and is open\n        require(storeToProducts[_storeId][_productId].exists == true); //Product exists in the store.\n\n        _price = storeToProducts[_storeId][_productId].price;\n        _quantity = storeToProducts[_storeId][_productId].quantity;\n        return;\n    }\n\n    function getReceipt(address _address, uint _receiptId) external view \n    returns(uint _storeId, uint _productId, uint _pricePerProduct, uint _blockNumber) {\n\n        require(customerToReceipts[_address][_receiptId].exists == true); \n\n        _storeId = customerToReceipts[_address][_receiptId].storeId;\n        _productId = customerToReceipts[_address][_receiptId].productId;\n        _pricePerProduct = customerToReceipts[_address][_receiptId].pricePerProduct;\n        _blockNumber = customerToReceipts[_address][_receiptId].blockNumber;\n        return;\n    }\n\n    function addProduct(uint _storeId, uint _price, uint _quantity)\n    public ownerOf(_storeId) validProduct(_price, _quantity) onlyWhenNotStopped {\n        Product memory _newProduct = Product(_price, _quantity, true);\n        uint _productId = storeToProducts[_storeId].push(_newProduct) - 1;\n        \n        emit LogNewProduct(_storeId, _productId);\n    }\n\n    function editProduct(uint _storeId, uint _productId, uint _newPrice, uint _newQuantity) \n    public ownerOf(_storeId) validProduct(_newPrice, _newQuantity) onlyWhenNotStopped {\n\n        require(storeToProducts[_storeId][_productId].exists == true);\n\n        Product storage _product = storeToProducts[_storeId][_productId];\n        _product.price = _newPrice;\n        _product.quantity = _newQuantity;\n\n        emit LogProductUpdate(_storeId, _productId);\n    }\n\n    function buyProduct(uint _storeId, uint _productId) public payable onlyWhenNotStopped {\n        require(stores[_storeId].exists == true); //Store exists and is open\n        require(storeToProducts[_storeId][_productId].exists == true); //Product exists in the store.\n        require(storeToProducts[_storeId][_productId].quantity > 0);\n        require(storeToProducts[_storeId][_productId].price == msg.value);\n\n        Receipt memory _receipt = Receipt(true, _storeId, _productId, \n                                        storeToProducts[_storeId][_productId].price, block.number);\n\n        uint _receiptId = customerToReceipts[msg.sender].push(_receipt);\n        storeToProducts[_storeId][_productId].quantity--;\n        stores[_storeId].balance += msg.value;\n\n        emit LogProductPurchase(_storeId, _productId, _receiptId, msg.sender);\n    }\n}",
  "sourcePath": "/Users/cleary/crypto_course/ethereum-storefront/contracts/ProductFactory.sol",
  "compiler": {
    "name": "solc",
    "version": "0.4.24+commit.e67f0147.Emscripten.clang"
  },
  "schemaVersion": "2.0.1",
  "updatedAt": "2018-08-28T01:16:23.704Z"
}