{
  "contractName": "Storefront",
  "abi": [
    {
      "constant": true,
      "inputs": [
        {
          "name": "",
          "type": "address"
        }
      ],
      "name": "storeOwners",
      "outputs": [
        {
          "name": "",
          "type": "bool"
        }
      ],
      "payable": false,
      "stateMutability": "view",
      "type": "function"
    },
    {
      "constant": false,
      "inputs": [],
      "name": "stopContract",
      "outputs": [],
      "payable": false,
      "stateMutability": "nonpayable",
      "type": "function"
    },
    {
      "constant": false,
      "inputs": [
        {
          "name": "_address",
          "type": "address"
        }
      ],
      "name": "removeAdmin",
      "outputs": [],
      "payable": false,
      "stateMutability": "nonpayable",
      "type": "function"
    },
    {
      "constant": true,
      "inputs": [
        {
          "name": "_storeId",
          "type": "uint256"
        },
        {
          "name": "_productId",
          "type": "uint256"
        }
      ],
      "name": "getProduct",
      "outputs": [
        {
          "name": "_price",
          "type": "uint256"
        },
        {
          "name": "_quantity",
          "type": "uint256"
        }
      ],
      "payable": false,
      "stateMutability": "view",
      "type": "function"
    },
    {
      "constant": true,
      "inputs": [
        {
          "name": "",
          "type": "uint256"
        }
      ],
      "name": "storeToOwner",
      "outputs": [
        {
          "name": "",
          "type": "address"
        }
      ],
      "payable": false,
      "stateMutability": "view",
      "type": "function"
    },
    {
      "constant": false,
      "inputs": [
        {
          "name": "_storeId",
          "type": "uint256"
        },
        {
          "name": "_productId",
          "type": "uint256"
        }
      ],
      "name": "buyProduct",
      "outputs": [],
      "payable": true,
      "stateMutability": "payable",
      "type": "function"
    },
    {
      "constant": false,
      "inputs": [
        {
          "name": "_address",
          "type": "address"
        }
      ],
      "name": "removeStoreOwner",
      "outputs": [],
      "payable": false,
      "stateMutability": "nonpayable",
      "type": "function"
    },
    {
      "constant": true,
      "inputs": [
        {
          "name": "",
          "type": "address"
        },
        {
          "name": "",
          "type": "uint256"
        }
      ],
      "name": "customerToReceipts",
      "outputs": [
        {
          "name": "exists",
          "type": "bool"
        },
        {
          "name": "storeId",
          "type": "uint256"
        },
        {
          "name": "productId",
          "type": "uint256"
        },
        {
          "name": "pricePerProduct",
          "type": "uint256"
        },
        {
          "name": "blockNumber",
          "type": "uint256"
        }
      ],
      "payable": false,
      "stateMutability": "view",
      "type": "function"
    },
    {
      "constant": false,
      "inputs": [
        {
          "name": "_address",
          "type": "address"
        }
      ],
      "name": "addAdmin",
      "outputs": [],
      "payable": false,
      "stateMutability": "nonpayable",
      "type": "function"
    },
    {
      "constant": true,
      "inputs": [
        {
          "name": "",
          "type": "address"
        }
      ],
      "name": "administrators",
      "outputs": [
        {
          "name": "",
          "type": "bool"
        }
      ],
      "payable": false,
      "stateMutability": "view",
      "type": "function"
    },
    {
      "constant": true,
      "inputs": [
        {
          "name": "",
          "type": "uint256"
        },
        {
          "name": "",
          "type": "uint256"
        }
      ],
      "name": "storeToProducts",
      "outputs": [
        {
          "name": "price",
          "type": "uint256"
        },
        {
          "name": "quantity",
          "type": "uint256"
        },
        {
          "name": "exists",
          "type": "bool"
        }
      ],
      "payable": false,
      "stateMutability": "view",
      "type": "function"
    },
    {
      "constant": true,
      "inputs": [
        {
          "name": "_storeId",
          "type": "uint256"
        }
      ],
      "name": "getStore",
      "outputs": [
        {
          "name": "",
          "type": "bool"
        },
        {
          "name": "",
          "type": "uint256"
        }
      ],
      "payable": false,
      "stateMutability": "view",
      "type": "function"
    },
    {
      "constant": true,
      "inputs": [],
      "name": "getOwner",
      "outputs": [
        {
          "name": "",
          "type": "address"
        }
      ],
      "payable": false,
      "stateMutability": "view",
      "type": "function"
    },
    {
      "constant": false,
      "inputs": [
        {
          "name": "_storeId",
          "type": "uint256"
        },
        {
          "name": "_price",
          "type": "uint256"
        },
        {
          "name": "_quantity",
          "type": "uint256"
        }
      ],
      "name": "addProduct",
      "outputs": [],
      "payable": false,
      "stateMutability": "nonpayable",
      "type": "function"
    },
    {
      "constant": false,
      "inputs": [
        {
          "name": "_address",
          "type": "address"
        }
      ],
      "name": "addStoreOwner",
      "outputs": [],
      "payable": false,
      "stateMutability": "nonpayable",
      "type": "function"
    },
    {
      "constant": false,
      "inputs": [
        {
          "name": "_storeId",
          "type": "uint256"
        },
        {
          "name": "_productId",
          "type": "uint256"
        },
        {
          "name": "_newPrice",
          "type": "uint256"
        },
        {
          "name": "_newQuantity",
          "type": "uint256"
        }
      ],
      "name": "editProduct",
      "outputs": [],
      "payable": false,
      "stateMutability": "nonpayable",
      "type": "function"
    },
    {
      "constant": true,
      "inputs": [
        {
          "name": "_address",
          "type": "address"
        },
        {
          "name": "_receiptId",
          "type": "uint256"
        }
      ],
      "name": "getReceipt",
      "outputs": [
        {
          "name": "_storeId",
          "type": "uint256"
        },
        {
          "name": "_productId",
          "type": "uint256"
        },
        {
          "name": "_pricePerProduct",
          "type": "uint256"
        },
        {
          "name": "_blockNumber",
          "type": "uint256"
        }
      ],
      "payable": false,
      "stateMutability": "view",
      "type": "function"
    },
    {
      "constant": false,
      "inputs": [],
      "name": "resumeContract",
      "outputs": [],
      "payable": false,
      "stateMutability": "nonpayable",
      "type": "function"
    },
    {
      "constant": true,
      "inputs": [
        {
          "name": "",
          "type": "uint256"
        }
      ],
      "name": "stores",
      "outputs": [
        {
          "name": "exists",
          "type": "bool"
        },
        {
          "name": "balance",
          "type": "uint256"
        }
      ],
      "payable": false,
      "stateMutability": "view",
      "type": "function"
    },
    {
      "constant": false,
      "inputs": [],
      "name": "createStore",
      "outputs": [],
      "payable": false,
      "stateMutability": "nonpayable",
      "type": "function"
    },
    {
      "payable": false,
      "stateMutability": "nonpayable",
      "type": "fallback"
    },
    {
      "anonymous": false,
      "inputs": [
        {
          "indexed": false,
          "name": "_storeId",
          "type": "uint256"
        }
      ],
      "name": "LogWithdrawl",
      "type": "event"
    },
    {
      "anonymous": false,
      "inputs": [
        {
          "indexed": false,
          "name": "_storeId",
          "type": "uint256"
        },
        {
          "indexed": false,
          "name": "_productId",
          "type": "uint256"
        }
      ],
      "name": "LogNewProduct",
      "type": "event"
    },
    {
      "anonymous": false,
      "inputs": [
        {
          "indexed": false,
          "name": "_storeId",
          "type": "uint256"
        },
        {
          "indexed": false,
          "name": "_productId",
          "type": "uint256"
        }
      ],
      "name": "LogProductUpdate",
      "type": "event"
    },
    {
      "anonymous": false,
      "inputs": [
        {
          "indexed": false,
          "name": "_storeId",
          "type": "uint256"
        },
        {
          "indexed": false,
          "name": "_productId",
          "type": "uint256"
        },
        {
          "indexed": false,
          "name": "_receiptId",
          "type": "uint256"
        },
        {
          "indexed": false,
          "name": "_address",
          "type": "address"
        }
      ],
      "name": "LogProductPurchase",
      "type": "event"
    },
    {
      "anonymous": false,
      "inputs": [
        {
          "indexed": false,
          "name": "_storeId",
          "type": "uint256"
        }
      ],
      "name": "LogNewStore",
      "type": "event"
    },
    {
      "anonymous": false,
      "inputs": [
        {
          "indexed": false,
          "name": "_address",
          "type": "address"
        }
      ],
      "name": "LogNewStoreOwner",
      "type": "event"
    },
    {
      "anonymous": false,
      "inputs": [
        {
          "indexed": false,
          "name": "_address",
          "type": "address"
        }
      ],
      "name": "LogRemovedStoreOwner",
      "type": "event"
    },
    {
      "anonymous": false,
      "inputs": [
        {
          "indexed": false,
          "name": "_address",
          "type": "address"
        }
      ],
      "name": "LogNewAdmin",
      "type": "event"
    },
    {
      "anonymous": false,
      "inputs": [
        {
          "indexed": false,
          "name": "_address",
          "type": "address"
        }
      ],
      "name": "LogRemovedAdmin",
      "type": "event"
    },
    {
      "constant": true,
      "inputs": [
        {
          "name": "_storeId",
          "type": "uint256"
        }
      ],
      "name": "getAllProductsByStore",
      "outputs": [
        {
          "name": "",
          "type": "uint256[]"
        }
      ],
      "payable": false,
      "stateMutability": "view",
      "type": "function"
    },
    {
      "constant": true,
      "inputs": [],
      "name": "getAllStores",
      "outputs": [
        {
          "name": "",
          "type": "uint256[]"
        }
      ],
      "payable": false,
      "stateMutability": "view",
      "type": "function"
    },
    {
      "constant": true,
      "inputs": [
        {
          "name": "_address",
          "type": "address"
        }
      ],
      "name": "getAllReceiptsByCustomer",
      "outputs": [
        {
          "name": "",
          "type": "uint256[]"
        }
      ],
      "payable": false,
      "stateMutability": "view",
      "type": "function"
    },
    {
      "constant": false,
      "inputs": [
        {
          "name": "_storeId",
          "type": "uint256"
        }
      ],
      "name": "withdraw",
      "outputs": [],
      "payable": false,
      "stateMutability": "nonpayable",
      "type": "function"
    }
  ],
  "bytecode": "0x60806040526000600260006101000a81548160ff021916908315150217905550336000806101000a81548173ffffffffffffffffffffffffffffffffffffffff021916908373ffffffffffffffffffffffffffffffffffffffff16021790555060018060003373ffffffffffffffffffffffffffffffffffffffff1673ffffffffffffffffffffffffffffffffffffffff16815260200190815260200160002060006101000a81548160ff0219169083151502179055506001600360003373ffffffffffffffffffffffffffffffffffffffff1673ffffffffffffffffffffffffffffffffffffffff16815260200190815260200160002060006101000a81548160ff02191690831515021790555061232f8061011d6000396000f30060806040526004361061013e576000357c0100000000000000000000000000000000000000000000000000000000900463ffffffff168063057cc2a11461015057806312253a6c146101ab5780631785f53c146101c257806324f346ab146102055780632e1a7d4d146102575780633148e2cb1461028457806353b62866146102f15780636174fdd11461031b5780636b4bdec81461035e57806370480275146103df57806376be15851461042257806381bc4f941461047d57806383403120146104da578063893d20e8146105265780638b4bd1051461057d5780639937b38f146105e95780639adeb5f11461062a5780639c4560251461066d578063aaefc9aa146106b8578063bae1888014610750578063c4bc5da5146107c6578063d32f43a7146107dd578063e8a59cd81461085f578063fb122ac8146108ab575b34801561014a57600080fd5b50600080fd5b34801561015c57600080fd5b50610191600480360381019080803573ffffffffffffffffffffffffffffffffffffffff1690602001909291905050506108c2565b604051808215151515815260200191505060405180910390f35b3480156101b757600080fd5b506101c06108e2565b005b3480156101ce57600080fd5b50610203600480360381019080803573ffffffffffffffffffffffffffffffffffffffff16906020019092919050505061095a565b005b34801561021157600080fd5b5061023a6004803603810190808035906020019092919080359060200190929190505050610af4565b604051808381526020018281526020019250505060405180910390f35b34801561026357600080fd5b5061028260048036038101908080359060200190929190505050610bf7565b005b34801561029057600080fd5b506102af60048036038101908080359060200190929190505050610e36565b604051808273ffffffffffffffffffffffffffffffffffffffff1673ffffffffffffffffffffffffffffffffffffffff16815260200191505060405180910390f35b6103196004803603810190808035906020019092919080359060200190929190505050610e69565b005b34801561032757600080fd5b5061035c600480360381019080803573ffffffffffffffffffffffffffffffffffffffff1690602001909291905050506111aa565b005b34801561036a57600080fd5b506103a9600480360381019080803573ffffffffffffffffffffffffffffffffffffffff16906020019092919080359060200190929190505050611348565b60405180861515151581526020018581526020018481526020018381526020018281526020019550505050505060405180910390f35b3480156103eb57600080fd5b50610420600480360381019080803573ffffffffffffffffffffffffffffffffffffffff1690602001909291905050506113a7565b005b34801561042e57600080fd5b50610463600480360381019080803573ffffffffffffffffffffffffffffffffffffffff169060200190929190505050611540565b604051808215151515815260200191505060405180910390f35b34801561048957600080fd5b506104b26004803603810190808035906020019092919080359060200190929190505050611560565b6040518084815260200183815260200182151515158152602001935050505060405180910390f35b3480156104e657600080fd5b50610505600480360381019080803590602001909291905050506115b3565b60405180831515151581526020018281526020019250505060405180910390f35b34801561053257600080fd5b5061053b611644565b604051808273ffffffffffffffffffffffffffffffffffffffff1673ffffffffffffffffffffffffffffffffffffffff16815260200191505060405180910390f35b34801561058957600080fd5b5061059261166d565b6040518080602001828103825283818151815260200191508051906020019060200280838360005b838110156105d55780820151818401526020810190506105ba565b505050509050019250505060405180910390f35b3480156105f557600080fd5b506106286004803603810190808035906020019092919080359060200190929190803590602001909291905050506116ed565b005b34801561063657600080fd5b5061066b600480360381019080803573ffffffffffffffffffffffffffffffffffffffff1690602001909291905050506118dd565b005b34801561067957600080fd5b506106b660048036038101908080359060200190929190803590602001909291908035906020019092919080359060200190929190505050611a7b565b005b3480156106c457600080fd5b506106f9600480360381019080803573ffffffffffffffffffffffffffffffffffffffff169060200190929190505050611c5b565b6040518080602001828103825283818151815260200191508051906020019060200280838360005b8381101561073c578082015181840152602081019050610721565b505050509050019250505060405180910390f35b34801561075c57600080fd5b5061079b600480360381019080803573ffffffffffffffffffffffffffffffffffffffff16906020019092919080359060200190929190505050611d57565b6040518085815260200184815260200183815260200182815260200194505050505060405180910390f35b3480156107d257600080fd5b506107db611f63565b005b3480156107e957600080fd5b5061080860048036038101908080359060200190929190505050611fdb565b6040518080602001828103825283818151815260200191508051906020019060200280838360005b8381101561084b578082015181840152602081019050610830565b505050509050019250505060405180910390f35b34801561086b57600080fd5b5061088a600480360381019080803590602001909291905050506120bf565b60405180831515151581526020018281526020019250505060405180910390f35b3480156108b757600080fd5b506108c06120ff565b005b60036020528060005260406000206000915054906101000a900460ff1681565b6000809054906101000a900473ffffffffffffffffffffffffffffffffffffffff1673ffffffffffffffffffffffffffffffffffffffff163373ffffffffffffffffffffffffffffffffffffffff1614151561093d57600080fd5b6001600260006101000a81548160ff021916908315150217905550565b6000809054906101000a900473ffffffffffffffffffffffffffffffffffffffff1673ffffffffffffffffffffffffffffffffffffffff163373ffffffffffffffffffffffffffffffffffffffff161415156109b557600080fd5b60001515600260009054906101000a900460ff1615151415156109d757600080fd5b60011515600160008373ffffffffffffffffffffffffffffffffffffffff1673ffffffffffffffffffffffffffffffffffffffff16815260200190815260200160002060009054906101000a900460ff161515141515610a3657600080fd5b6000600160008373ffffffffffffffffffffffffffffffffffffffff1673ffffffffffffffffffffffffffffffffffffffff16815260200190815260200160002060006101000a81548160ff0219169083151502179055507fe6e9128d95298888c459545040e07936d4c97dd2fea5e367bd1bfb7d90b6cf8281604051808273ffffffffffffffffffffffffffffffffffffffff1673ffffffffffffffffffffffffffffffffffffffff16815260200191505060405180910390a150565b60008060011515600485815481101515610b0a57fe5b906000526020600020906002020160000160009054906101000a900460ff161515141515610b3757600080fd5b600115156006600086815260200190815260200160002084815481101515610b5b57fe5b906000526020600020906003020160020160009054906101000a900460ff161515141515610b8857600080fd5b6006600085815260200190815260200160002083815481101515610ba857fe5b90600052602060002090600302016000015491506006600085815260200190815260200160002083815481101515610bdc57fe5b90600052602060002090600302016001015490509250929050565b6000808260008110151515610c0b57600080fd5b3373ffffffffffffffffffffffffffffffffffffffff166005600083815260200190815260200160002060009054906101000a900473ffffffffffffffffffffffffffffffffffffffff1673ffffffffffffffffffffffffffffffffffffffff16141515610c7857600080fd5b60011515600482815481101515610c8b57fe5b906000526020600020906002020160000160009054906101000a900460ff161515141515610cb857600080fd5b60001515600260009054906101000a900460ff161515141515610cda57600080fd5b60006005600086815260200190815260200160002060009054906101000a900473ffffffffffffffffffffffffffffffffffffffff1673ffffffffffffffffffffffffffffffffffffffff1631111515610d3357600080fd5b6005600085815260200190815260200160002060009054906101000a900473ffffffffffffffffffffffffffffffffffffffff169250600484815481101515610d7857fe5b90600052602060002090600202016001015491506000600485815481101515610d9d57fe5b9060005260206000209060020201600101819055508273ffffffffffffffffffffffffffffffffffffffff166108fc839081150290604051600060405180830381858888f19350505050158015610df8573d6000803e3d6000fd5b507fc5d50235fd9e924e88482b34b796ec7bcf678314f79a7cfef78812ddae642ffc846040518082815260200191505060405180910390a150505050565b60056020528060005260406000206000915054906101000a900473ffffffffffffffffffffffffffffffffffffffff1681565b610e71612291565b6000801515600260009054906101000a900460ff161515141515610e9457600080fd5b60011515600485815481101515610ea757fe5b906000526020600020906002020160000160009054906101000a900460ff161515141515610ed457600080fd5b600115156006600086815260200190815260200160002084815481101515610ef857fe5b906000526020600020906003020160020160009054906101000a900460ff161515141515610f2557600080fd5b60006006600086815260200190815260200160002084815481101515610f4757fe5b906000526020600020906003020160010154111515610f6557600080fd5b346006600086815260200190815260200160002084815481101515610f8657fe5b906000526020600020906003020160000154141515610fa457600080fd5b60a0604051908101604052806001151581526020018581526020018481526020016006600087815260200190815260200160002085815481101515610fe557fe5b9060005260206000209060030201600001548152602001438152509150600760003373ffffffffffffffffffffffffffffffffffffffff1673ffffffffffffffffffffffffffffffffffffffff168152602001908152602001600020829080600181540180825580915050906001820390600052602060002090600502016000909192909190915060008201518160000160006101000a81548160ff021916908315150217905550602082015181600101556040820151816002015560608201518160030155608082015181600401555050905060066000858152602001908152602001600020838154811015156110d957fe5b906000526020600020906003020160010160008154809291906001900391905055503460048581548110151561110b57fe5b9060005260206000209060020201600101600082825401925050819055507fdaa686e23a0718913ef1083d999609ae3ae4a27debbdc01bd4011c1995f36fd284848333604051808581526020018481526020018381526020018273ffffffffffffffffffffffffffffffffffffffff1673ffffffffffffffffffffffffffffffffffffffff16815260200194505050505060405180910390a150505050565b60011515600160003373ffffffffffffffffffffffffffffffffffffffff1673ffffffffffffffffffffffffffffffffffffffff16815260200190815260200160002060009054906101000a900460ff16151514151561120957600080fd5b60001515600260009054906101000a900460ff16151514151561122b57600080fd5b60011515600360008373ffffffffffffffffffffffffffffffffffffffff1673ffffffffffffffffffffffffffffffffffffffff16815260200190815260200160002060009054906101000a900460ff16151514151561128a57600080fd5b6000600360008373ffffffffffffffffffffffffffffffffffffffff1673ffffffffffffffffffffffffffffffffffffffff16815260200190815260200160002060006101000a81548160ff0219169083151502179055507ff1b2b512c5f52c061ca1eefd87b94a5fffa403e06bdf7ac2301e7ea6f5e6b88a81604051808273ffffffffffffffffffffffffffffffffffffffff1673ffffffffffffffffffffffffffffffffffffffff16815260200191505060405180910390a150565b60076020528160005260406000208181548110151561136357fe5b9060005260206000209060050201600091509150508060000160009054906101000a900460ff16908060010154908060020154908060030154908060040154905085565b6000809054906101000a900473ffffffffffffffffffffffffffffffffffffffff1673ffffffffffffffffffffffffffffffffffffffff163373ffffffffffffffffffffffffffffffffffffffff1614151561140257600080fd5b60001515600260009054906101000a900460ff16151514151561142457600080fd5b60001515600160008373ffffffffffffffffffffffffffffffffffffffff1673ffffffffffffffffffffffffffffffffffffffff16815260200190815260200160002060009054906101000a900460ff16151514151561148357600080fd5b60018060008373ffffffffffffffffffffffffffffffffffffffff1673ffffffffffffffffffffffffffffffffffffffff16815260200190815260200160002060006101000a81548160ff0219169083151502179055507f39e7d4b9ba48f55a740a5192809dbc498fa12724c030b37dab126a3f6774c0f381604051808273ffffffffffffffffffffffffffffffffffffffff1673ffffffffffffffffffffffffffffffffffffffff16815260200191505060405180910390a150565b60016020528060005260406000206000915054906101000a900460ff1681565b60066020528160005260406000208181548110151561157b57fe5b9060005260206000209060030201600091509150508060000154908060010154908060020160009054906101000a900460ff16905083565b6000806115be6122c3565b600084101515156115ce57600080fd5b600480549050841015156115e157600080fd5b6004848154811015156115f057fe5b90600052602060002090600202016040805190810160405290816000820160009054906101000a900460ff161515151581526020016001820154815250509050806000015181602001519250925050915091565b60008060009054906101000a900473ffffffffffffffffffffffffffffffffffffffff16905090565b60608060006004805490506040519080825280602002602001820160405280156116a65781602001602082028038833980820191505090505b509150600090505b6004805490508110156116e5578082828151811015156116ca57fe5b906020019060200201818152505080806001019150506116ae565b819250505090565b6116f56122df565b6000846000811015151561170857600080fd5b3373ffffffffffffffffffffffffffffffffffffffff166005600083815260200190815260200160002060009054906101000a900473ffffffffffffffffffffffffffffffffffffffff1673ffffffffffffffffffffffffffffffffffffffff1614151561177557600080fd5b6001151560048281548110151561178857fe5b906000526020600020906002020160000160009054906101000a900460ff1615151415156117b557600080fd5b8484600082101515156117c757600080fd5b600081101515156117d757600080fd5b60001515600260009054906101000a900460ff1615151415156117f957600080fd5b6060604051908101604052808881526020018781526020016001151581525094506001600660008a81526020019081526020016000208690806001815401808255809150509060018203906000526020600020906003020160009091929091909150600082015181600001556020820151816001015560408201518160020160006101000a81548160ff02191690831515021790555050500393507fcc2f6643bdbf63882380ab3c050cc30a624ac5b4bc3645e5d308d1029bbaa7098885604051808381526020018281526020019250505060405180910390a15050505050505050565b60011515600160003373ffffffffffffffffffffffffffffffffffffffff1673ffffffffffffffffffffffffffffffffffffffff16815260200190815260200160002060009054906101000a900460ff16151514151561193c57600080fd5b60001515600260009054906101000a900460ff16151514151561195e57600080fd5b60001515600360008373ffffffffffffffffffffffffffffffffffffffff1673ffffffffffffffffffffffffffffffffffffffff16815260200190815260200160002060009054906101000a900460ff1615151415156119bd57600080fd5b6001600360008373ffffffffffffffffffffffffffffffffffffffff1673ffffffffffffffffffffffffffffffffffffffff16815260200190815260200160002060006101000a81548160ff0219169083151502179055507f64a6cb4c2615e9c9ee211131f9fc94aaa6238a3c255423b75ba43ef01ca42dcd81604051808273ffffffffffffffffffffffffffffffffffffffff1673ffffffffffffffffffffffffffffffffffffffff16815260200191505060405180910390a150565b60008460008110151515611a8e57600080fd5b3373ffffffffffffffffffffffffffffffffffffffff166005600083815260200190815260200160002060009054906101000a900473ffffffffffffffffffffffffffffffffffffffff1673ffffffffffffffffffffffffffffffffffffffff16141515611afb57600080fd5b60011515600482815481101515611b0e57fe5b906000526020600020906002020160000160009054906101000a900460ff161515141515611b3b57600080fd5b838360008210151515611b4d57600080fd5b60008110151515611b5d57600080fd5b60001515600260009054906101000a900460ff161515141515611b7f57600080fd5b60011515600660008a815260200190815260200160002088815481101515611ba357fe5b906000526020600020906003020160020160009054906101000a900460ff161515141515611bd057600080fd5b6006600089815260200190815260200160002087815481101515611bf057fe5b906000526020600020906003020193508584600001819055508484600101819055507fba7f13844d8753c081d55cfeb4062a794faf80eb72a87cab6d2ab49913e892468888604051808381526020018281526020019250505060405180910390a15050505050505050565b6060806000600760008573ffffffffffffffffffffffffffffffffffffffff1673ffffffffffffffffffffffffffffffffffffffff16815260200190815260200160002080549050604051908082528060200260200182016040528015611cd15781602001602082028038833980820191505090505b509150600090505b600760008573ffffffffffffffffffffffffffffffffffffffff1673ffffffffffffffffffffffffffffffffffffffff16815260200190815260200160002080549050811015611d4d57808282815181101515611d3257fe5b90602001906020020181815250508080600101915050611cd9565b8192505050919050565b60008060008060011515600760008873ffffffffffffffffffffffffffffffffffffffff1673ffffffffffffffffffffffffffffffffffffffff16815260200190815260200160002086815481101515611dad57fe5b906000526020600020906005020160000160009054906101000a900460ff161515141515611dda57600080fd5b600760008773ffffffffffffffffffffffffffffffffffffffff1673ffffffffffffffffffffffffffffffffffffffff16815260200190815260200160002085815481101515611e2657fe5b9060005260206000209060050201600101549350600760008773ffffffffffffffffffffffffffffffffffffffff1673ffffffffffffffffffffffffffffffffffffffff16815260200190815260200160002085815481101515611e8657fe5b9060005260206000209060050201600201549250600760008773ffffffffffffffffffffffffffffffffffffffff1673ffffffffffffffffffffffffffffffffffffffff16815260200190815260200160002085815481101515611ee657fe5b9060005260206000209060050201600301549150600760008773ffffffffffffffffffffffffffffffffffffffff1673ffffffffffffffffffffffffffffffffffffffff16815260200190815260200160002085815481101515611f4657fe5b906000526020600020906005020160040154905092959194509250565b6000809054906101000a900473ffffffffffffffffffffffffffffffffffffffff1673ffffffffffffffffffffffffffffffffffffffff163373ffffffffffffffffffffffffffffffffffffffff16141515611fbe57600080fd5b6000600260006101000a81548160ff021916908315150217905550565b606080600060011515600485815481101515611ff357fe5b906000526020600020906002020160000160009054906101000a900460ff16151514151561202057600080fd5b60066000858152602001908152602001600020805490506040519080825280602002602001820160405280156120655781602001602082028038833980820191505090505b509150600090505b60066000858152602001908152602001600020805490508110156120b55780828281518110151561209a57fe5b9060200190602002018181525050808060010191505061206d565b8192505050919050565b6004818154811015156120ce57fe5b90600052602060002090600202016000915090508060000160009054906101000a900460ff16908060010154905082565b6121076122c3565b600060011515600360003373ffffffffffffffffffffffffffffffffffffffff1673ffffffffffffffffffffffffffffffffffffffff16815260200190815260200160002060009054906101000a900460ff16151514151561216857600080fd5b60001515600260009054906101000a900460ff16151514151561218a57600080fd5b60408051908101604052806001151581526020016000815250915060016004839080600181540180825580915050906001820390600052602060002090600202016000909192909190915060008201518160000160006101000a81548160ff021916908315150217905550602082015181600101555050039050336005600083815260200190815260200160002060006101000a81548173ffffffffffffffffffffffffffffffffffffffff021916908373ffffffffffffffffffffffffffffffffffffffff1602179055507f83c4d69ac27380ce5274b606711fc65fdde6fd6546fccaf0c2623399fad92f40816040518082815260200191505060405180910390a15050565b60a060405190810160405280600015158152602001600081526020016000815260200160008152602001600081525090565b6040805190810160405280600015158152602001600081525090565b606060405190810160405280600081526020016000815260200160001515815250905600a165627a7a72305820e94098296d7410f5bf41b9e16e5015201bfff66176d830f4149e8b56896193900029",
  "source": "pragma solidity ^0.4.24;\nimport \"./ProductFactory.sol\";\n\n\ncontract Storefront is ProductFactory {\n    \n    event LogWithdrawl(uint _storeId);\n\n    function getAllProductsByStore(uint _storeId) external view returns(uint[]) {\n        require(stores[_storeId].exists == true); //Store exists and is open\n        \n        uint[] memory _ids = new uint[](storeToProducts[_storeId].length);\n\n        for (uint i = 0; i < storeToProducts[_storeId].length; i++) {\n            _ids[i] = i;\n        }\n        return _ids;\n    }\n\n    function getAllStores() external view returns(uint[]) {\n        uint[] memory _ids = new uint[](stores.length);\n\n        for (uint i = 0; i < stores.length; i++) {\n            _ids[i] = i;\n        }\n        return _ids;\n    }\n\n    function getAllReceiptsByCustomer(address _address) external view returns (uint[]) {\n        uint[] memory _ids = new uint[](customerToReceipts[_address].length);\n\n        for (uint i = 0; i < customerToReceipts[_address].length; i++) {\n            _ids[i] = i;\n        }\n        return _ids;\n    }\n\n    function withdraw(uint _storeId) public ownerOf(_storeId) onlyWhenNotStopped {\n        require(storeToOwner[_storeId].balance > 0);\n\n        address _storeOwner = storeToOwner[_storeId];\n        uint _storeBalance = stores[_storeId].balance;\n        stores[_storeId].balance = 0;\n\n        _storeOwner.transfer(_storeBalance);\n        \n        emit LogWithdrawl(_storeId);\n    }\n\n    // Fallback function - Called if other functions don't match call or\n    // sent ether without data\n    // Typically, called when invalid data is sent\n    // Added so ether sent to this contract is reverted if the contract fails\n    // otherwise, the sender's money is transferred to contract\n    function() public {\n        revert();\n    }\n}",
  "sourcePath": "/Users/cleary/crypto_course/ethereum-storefront/contracts/Storefront.sol",
  "compiler": {
    "name": "solc",
    "version": "0.4.24+commit.e67f0147.Emscripten.clang"
  },
  "schemaVersion": "2.0.1",
  "updatedAt": "2018-08-28T01:16:23.700Z"
}