{
  "contractName": "StoreHelper",
  "abi": [
    {
      "constant": true,
      "inputs": [
        {
          "name": "",
          "type": "address"
        }
      ],
      "name": "storeOwners",
      "outputs": [
        {
          "name": "",
          "type": "bool"
        }
      ],
      "payable": false,
      "stateMutability": "view",
      "type": "function"
    },
    {
      "constant": false,
      "inputs": [
        {
          "name": "_address",
          "type": "address"
        }
      ],
      "name": "removeAdmin",
      "outputs": [],
      "payable": false,
      "stateMutability": "nonpayable",
      "type": "function"
    },
    {
      "constant": true,
      "inputs": [
        {
          "name": "",
          "type": "uint256"
        }
      ],
      "name": "storeToOwner",
      "outputs": [
        {
          "name": "",
          "type": "address"
        }
      ],
      "payable": false,
      "stateMutability": "view",
      "type": "function"
    },
    {
      "constant": false,
      "inputs": [
        {
          "name": "_address",
          "type": "address"
        }
      ],
      "name": "removeStoreOwner",
      "outputs": [],
      "payable": false,
      "stateMutability": "nonpayable",
      "type": "function"
    },
    {
      "constant": true,
      "inputs": [
        {
          "name": "",
          "type": "address"
        },
        {
          "name": "",
          "type": "uint256"
        }
      ],
      "name": "customerToReceipts",
      "outputs": [
        {
          "name": "storeId",
          "type": "uint256"
        },
        {
          "name": "productId",
          "type": "uint256"
        },
        {
          "name": "pricePerProduct",
          "type": "uint256"
        },
        {
          "name": "blockNumber",
          "type": "uint256"
        }
      ],
      "payable": false,
      "stateMutability": "view",
      "type": "function"
    },
    {
      "constant": false,
      "inputs": [
        {
          "name": "_address",
          "type": "address"
        }
      ],
      "name": "addAdmin",
      "outputs": [],
      "payable": false,
      "stateMutability": "nonpayable",
      "type": "function"
    },
    {
      "constant": true,
      "inputs": [
        {
          "name": "",
          "type": "address"
        }
      ],
      "name": "administrators",
      "outputs": [
        {
          "name": "",
          "type": "bool"
        }
      ],
      "payable": false,
      "stateMutability": "view",
      "type": "function"
    },
    {
      "constant": true,
      "inputs": [
        {
          "name": "",
          "type": "uint256"
        },
        {
          "name": "",
          "type": "uint256"
        }
      ],
      "name": "storeToProducts",
      "outputs": [
        {
          "name": "price",
          "type": "uint256"
        },
        {
          "name": "quantity",
          "type": "uint256"
        },
        {
          "name": "exists",
          "type": "bool"
        }
      ],
      "payable": false,
      "stateMutability": "view",
      "type": "function"
    },
    {
      "constant": true,
      "inputs": [],
      "name": "owner",
      "outputs": [
        {
          "name": "",
          "type": "address"
        }
      ],
      "payable": false,
      "stateMutability": "view",
      "type": "function"
    },
    {
      "constant": false,
      "inputs": [
        {
          "name": "_address",
          "type": "address"
        }
      ],
      "name": "addStoreOwner",
      "outputs": [],
      "payable": false,
      "stateMutability": "nonpayable",
      "type": "function"
    },
    {
      "constant": true,
      "inputs": [
        {
          "name": "",
          "type": "uint256"
        }
      ],
      "name": "stores",
      "outputs": [
        {
          "name": "exists",
          "type": "bool"
        },
        {
          "name": "balance",
          "type": "uint256"
        }
      ],
      "payable": false,
      "stateMutability": "view",
      "type": "function"
    },
    {
      "constant": false,
      "inputs": [],
      "name": "createStore",
      "outputs": [],
      "payable": false,
      "stateMutability": "nonpayable",
      "type": "function"
    },
    {
      "payable": false,
      "stateMutability": "nonpayable",
      "type": "fallback"
    },
    {
      "anonymous": false,
      "inputs": [
        {
          "indexed": false,
          "name": "_storeId",
          "type": "uint256"
        }
      ],
      "name": "LogNewProduct",
      "type": "event"
    },
    {
      "anonymous": false,
      "inputs": [
        {
          "indexed": false,
          "name": "_storeId",
          "type": "uint256"
        },
        {
          "indexed": false,
          "name": "_productId",
          "type": "uint256"
        }
      ],
      "name": "LogProductUpdate",
      "type": "event"
    },
    {
      "anonymous": false,
      "inputs": [
        {
          "indexed": false,
          "name": "_storeId",
          "type": "uint256"
        },
        {
          "indexed": false,
          "name": "_productId",
          "type": "uint256"
        },
        {
          "indexed": false,
          "name": "_address",
          "type": "address"
        }
      ],
      "name": "LogProductPurchase",
      "type": "event"
    },
    {
      "anonymous": false,
      "inputs": [
        {
          "indexed": false,
          "name": "_storeId",
          "type": "uint256"
        }
      ],
      "name": "LogWithdrawl",
      "type": "event"
    },
    {
      "anonymous": false,
      "inputs": [
        {
          "indexed": false,
          "name": "_storeId",
          "type": "uint256"
        }
      ],
      "name": "LogNewStore",
      "type": "event"
    },
    {
      "anonymous": false,
      "inputs": [
        {
          "indexed": false,
          "name": "_address",
          "type": "address"
        }
      ],
      "name": "LogNewStoreOwner",
      "type": "event"
    },
    {
      "anonymous": false,
      "inputs": [
        {
          "indexed": false,
          "name": "_address",
          "type": "address"
        }
      ],
      "name": "LogRemovedStoreOwner",
      "type": "event"
    },
    {
      "anonymous": false,
      "inputs": [
        {
          "indexed": false,
          "name": "_address",
          "type": "address"
        }
      ],
      "name": "LogNewAdmin",
      "type": "event"
    },
    {
      "anonymous": false,
      "inputs": [
        {
          "indexed": false,
          "name": "_address",
          "type": "address"
        }
      ],
      "name": "LogRemovedAdmin",
      "type": "event"
    },
    {
      "constant": true,
      "inputs": [
        {
          "name": "_storeId",
          "type": "uint256"
        },
        {
          "name": "_productId",
          "type": "uint256"
        }
      ],
      "name": "getProduct",
      "outputs": [
        {
          "name": "_price",
          "type": "uint256"
        },
        {
          "name": "_quantity",
          "type": "uint256"
        }
      ],
      "payable": false,
      "stateMutability": "view",
      "type": "function"
    },
    {
      "constant": true,
      "inputs": [
        {
          "name": "_storeId",
          "type": "uint256"
        }
      ],
      "name": "getAllProductsByStore",
      "outputs": [
        {
          "name": "",
          "type": "uint256[]"
        }
      ],
      "payable": false,
      "stateMutability": "view",
      "type": "function"
    },
    {
      "constant": true,
      "inputs": [],
      "name": "getAllStores",
      "outputs": [
        {
          "name": "",
          "type": "uint256[]"
        }
      ],
      "payable": false,
      "stateMutability": "view",
      "type": "function"
    },
    {
      "constant": false,
      "inputs": [
        {
          "name": "_storeId",
          "type": "uint256"
        },
        {
          "name": "_price",
          "type": "uint256"
        },
        {
          "name": "_quantity",
          "type": "uint256"
        }
      ],
      "name": "addProducts",
      "outputs": [],
      "payable": false,
      "stateMutability": "nonpayable",
      "type": "function"
    },
    {
      "constant": false,
      "inputs": [
        {
          "name": "_storeId",
          "type": "uint256"
        },
        {
          "name": "_productId",
          "type": "uint256"
        },
        {
          "name": "_newPrice",
          "type": "uint256"
        },
        {
          "name": "_newQuantity",
          "type": "uint256"
        }
      ],
      "name": "editProduct",
      "outputs": [],
      "payable": false,
      "stateMutability": "nonpayable",
      "type": "function"
    },
    {
      "constant": false,
      "inputs": [
        {
          "name": "_storeId",
          "type": "uint256"
        },
        {
          "name": "_productId",
          "type": "uint256"
        }
      ],
      "name": "buyProduct",
      "outputs": [
        {
          "name": "",
          "type": "bool"
        }
      ],
      "payable": true,
      "stateMutability": "payable",
      "type": "function"
    },
    {
      "constant": false,
      "inputs": [
        {
          "name": "_storeId",
          "type": "uint256"
        }
      ],
      "name": "withdraw",
      "outputs": [],
      "payable": false,
      "stateMutability": "nonpayable",
      "type": "function"
    }
  ],
  "bytecode": "0x6080604052336000806101000a81548173ffffffffffffffffffffffffffffffffffffffff021916908373ffffffffffffffffffffffffffffffffffffffff160217905550611b57806100536000396000f300608060405260043610610107576000357c0100000000000000000000000000000000000000000000000000000000900463ffffffff168063057cc2a1146101195780631785f53c1461017457806324f346ab146101b75780632e1a7d4d146102095780633148e2cb1461023657806353b62866146102a35780636174fdd1146102e55780636b4bdec814610328578063704802751461039e57806376be1585146103e157806381bc4f941461043c5780638b4bd105146104995780638da5cb5b146105055780639adeb5f11461055c5780639c4560251461059f578063a74bfbdc146105ea578063d32f43a71461062b578063e8a59cd8146106ad578063fb122ac8146106f9575b34801561011357600080fd5b50600080fd5b34801561012557600080fd5b5061015a600480360381019080803573ffffffffffffffffffffffffffffffffffffffff169060200190929190505050610710565b604051808215151515815260200191505060405180910390f35b34801561018057600080fd5b506101b5600480360381019080803573ffffffffffffffffffffffffffffffffffffffff169060200190929190505050610730565b005b3480156101c357600080fd5b506101ec60048036038101908080359060200190929190803590602001909291905050506108a8565b604051808381526020018281526020019250505060405180910390f35b34801561021557600080fd5b50610234600480360381019080803590602001909291905050506109ab565b005b34801561024257600080fd5b5061026160048036038101908080359060200190929190505050610be8565b604051808273ffffffffffffffffffffffffffffffffffffffff1673ffffffffffffffffffffffffffffffffffffffff16815260200191505060405180910390f35b6102cb6004803603810190808035906020019092919080359060200190929190505050610c1b565b604051808215151515815260200191505060405180910390f35b3480156102f157600080fd5b50610326600480360381019080803573ffffffffffffffffffffffffffffffffffffffff169060200190929190505050610ee0565b005b34801561033457600080fd5b50610373600480360381019080803573ffffffffffffffffffffffffffffffffffffffff1690602001909291908035906020019092919050505061105c565b6040518085815260200184815260200183815260200182815260200194505050505060405180910390f35b3480156103aa57600080fd5b506103df600480360381019080803573ffffffffffffffffffffffffffffffffffffffff1690602001909291905050506110a8565b005b3480156103ed57600080fd5b50610422600480360381019080803573ffffffffffffffffffffffffffffffffffffffff16906020019092919050505061121f565b604051808215151515815260200191505060405180910390f35b34801561044857600080fd5b50610471600480360381019080803590602001909291908035906020019092919050505061123f565b6040518084815260200183815260200182151515158152602001935050505060405180910390f35b3480156104a557600080fd5b506104ae611292565b6040518080602001828103825283818151815260200191508051906020019060200280838360005b838110156104f15780820151818401526020810190506104d6565b505050509050019250505060405180910390f35b34801561051157600080fd5b5061051a611312565b604051808273ffffffffffffffffffffffffffffffffffffffff1673ffffffffffffffffffffffffffffffffffffffff16815260200191505060405180910390f35b34801561056857600080fd5b5061059d600480360381019080803573ffffffffffffffffffffffffffffffffffffffff169060200190929190505050611337565b005b3480156105ab57600080fd5b506105e8600480360381019080803590602001909291908035906020019092919080359060200190929190803590602001909291905050506114b3565b005b3480156105f657600080fd5b50610629600480360381019080803590602001909291908035906020019092919080359060200190929190505050611670565b005b34801561063757600080fd5b506106566004803603810190808035906020019092919050505061182e565b6040518080602001828103825283818151815260200191508051906020019060200280838360005b8381101561069957808201518184015260208101905061067e565b505050509050019250505060405180910390f35b3480156106b957600080fd5b506106d860048036038101908080359060200190929190505050611912565b60405180831515151581526020018281526020019250505060405180910390f35b34801561070557600080fd5b5061070e611952565b005b60026020528060005260406000206000915054906101000a900460ff1681565b6000809054906101000a900473ffffffffffffffffffffffffffffffffffffffff1673ffffffffffffffffffffffffffffffffffffffff163373ffffffffffffffffffffffffffffffffffffffff1614151561078b57600080fd5b60011515600160008373ffffffffffffffffffffffffffffffffffffffff1673ffffffffffffffffffffffffffffffffffffffff16815260200190815260200160002060009054906101000a900460ff1615151415156107ea57600080fd5b6000600160008373ffffffffffffffffffffffffffffffffffffffff1673ffffffffffffffffffffffffffffffffffffffff16815260200190815260200160002060006101000a81548160ff0219169083151502179055507fe6e9128d95298888c459545040e07936d4c97dd2fea5e367bd1bfb7d90b6cf8281604051808273ffffffffffffffffffffffffffffffffffffffff1673ffffffffffffffffffffffffffffffffffffffff16815260200191505060405180910390a150565b600080600115156003858154811015156108be57fe5b906000526020600020906002020160000160009054906101000a900460ff1615151415156108eb57600080fd5b60011515600560008681526020019081526020016000208481548110151561090f57fe5b906000526020600020906003020160020160009054906101000a900460ff16151514151561093c57600080fd5b600560008581526020019081526020016000208381548110151561095c57fe5b9060005260206000209060030201600001549150600560008581526020019081526020016000208381548110151561099057fe5b90600052602060002090600302016001015490509250929050565b60008082600081101515156109bf57600080fd5b3373ffffffffffffffffffffffffffffffffffffffff166004600083815260200190815260200160002060009054906101000a900473ffffffffffffffffffffffffffffffffffffffff1673ffffffffffffffffffffffffffffffffffffffff16141515610a2c57600080fd5b60011515600382815481101515610a3f57fe5b906000526020600020906002020160000160009054906101000a900460ff161515141515610a6c57600080fd5b60006004600086815260200190815260200160002060009054906101000a900473ffffffffffffffffffffffffffffffffffffffff1673ffffffffffffffffffffffffffffffffffffffff1631111515610ac557600080fd5b6004600085815260200190815260200160002060009054906101000a900473ffffffffffffffffffffffffffffffffffffffff169250600384815481101515610b0a57fe5b90600052602060002090600202016001015491506000600385815481101515610b2f57fe5b906000526020600020906002020160010181905550600015158373ffffffffffffffffffffffffffffffffffffffff166108fc849081150290604051600060405180830381858888f1935050505015151415610bab5781600385815481101515610b9557fe5b9060005260206000209060020201600101819055505b7fc5d50235fd9e924e88482b34b796ec7bcf678314f79a7cfef78812ddae642ffc846040518082815260200191505060405180910390a150505050565b60046020528060005260406000206000915054906101000a900473ffffffffffffffffffffffffffffffffffffffff1681565b6000610c25611ac2565b60011515600385815481101515610c3857fe5b906000526020600020906002020160000160009054906101000a900460ff161515141515610c6557600080fd5b600115156005600086815260200190815260200160002084815481101515610c8957fe5b906000526020600020906003020160020160009054906101000a900460ff161515141515610cb657600080fd5b60006005600086815260200190815260200160002084815481101515610cd857fe5b906000526020600020906003020160010154111515610cf657600080fd5b346005600086815260200190815260200160002084815481101515610d1757fe5b906000526020600020906003020160000154141515610d3557600080fd5b6080604051908101604052808581526020018481526020016005600087815260200190815260200160002085815481101515610d6d57fe5b9060005260206000209060030201600001548152602001438152509050600660003373ffffffffffffffffffffffffffffffffffffffff1673ffffffffffffffffffffffffffffffffffffffff1681526020019081526020016000208190806001815401808255809150509060018203906000526020600020906004020160009091929091909150600082015181600001556020820151816001015560408201518160020155606082015181600301555050506005600085815260200190815260200160002083815481101515610e4057fe5b906000526020600020906003020160010160008154809291906001900391905055507f6f0becdfa9c4102eba6544bf33108a8a70f96efd5ecb13bff194e38ebefc10aa848433604051808481526020018381526020018273ffffffffffffffffffffffffffffffffffffffff1673ffffffffffffffffffffffffffffffffffffffff168152602001935050505060405180910390a1600191505092915050565b60011515600160003373ffffffffffffffffffffffffffffffffffffffff1673ffffffffffffffffffffffffffffffffffffffff16815260200190815260200160002060009054906101000a900460ff161515141515610f3f57600080fd5b60011515600260008373ffffffffffffffffffffffffffffffffffffffff1673ffffffffffffffffffffffffffffffffffffffff16815260200190815260200160002060009054906101000a900460ff161515141515610f9e57600080fd5b6000600260008373ffffffffffffffffffffffffffffffffffffffff1673ffffffffffffffffffffffffffffffffffffffff16815260200190815260200160002060006101000a81548160ff0219169083151502179055507ff1b2b512c5f52c061ca1eefd87b94a5fffa403e06bdf7ac2301e7ea6f5e6b88a81604051808273ffffffffffffffffffffffffffffffffffffffff1673ffffffffffffffffffffffffffffffffffffffff16815260200191505060405180910390a150565b60066020528160005260406000208181548110151561107757fe5b9060005260206000209060040201600091509150508060000154908060010154908060020154908060030154905084565b6000809054906101000a900473ffffffffffffffffffffffffffffffffffffffff1673ffffffffffffffffffffffffffffffffffffffff163373ffffffffffffffffffffffffffffffffffffffff1614151561110357600080fd5b60001515600160008373ffffffffffffffffffffffffffffffffffffffff1673ffffffffffffffffffffffffffffffffffffffff16815260200190815260200160002060009054906101000a900460ff16151514151561116257600080fd5b60018060008373ffffffffffffffffffffffffffffffffffffffff1673ffffffffffffffffffffffffffffffffffffffff16815260200190815260200160002060006101000a81548160ff0219169083151502179055507f39e7d4b9ba48f55a740a5192809dbc498fa12724c030b37dab126a3f6774c0f381604051808273ffffffffffffffffffffffffffffffffffffffff1673ffffffffffffffffffffffffffffffffffffffff16815260200191505060405180910390a150565b60016020528060005260406000206000915054906101000a900460ff1681565b60056020528160005260406000208181548110151561125a57fe5b9060005260206000209060030201600091509150508060000154908060010154908060020160009054906101000a900460ff16905083565b60608060006003805490506040519080825280602002602001820160405280156112cb5781602001602082028038833980820191505090505b509150600090505b60038054905081101561130a578082828151811015156112ef57fe5b906020019060200201818152505080806001019150506112d3565b819250505090565b6000809054906101000a900473ffffffffffffffffffffffffffffffffffffffff1681565b60011515600160003373ffffffffffffffffffffffffffffffffffffffff1673ffffffffffffffffffffffffffffffffffffffff16815260200190815260200160002060009054906101000a900460ff16151514151561139657600080fd5b60001515600260008373ffffffffffffffffffffffffffffffffffffffff1673ffffffffffffffffffffffffffffffffffffffff16815260200190815260200160002060009054906101000a900460ff1615151415156113f557600080fd5b6001600260008373ffffffffffffffffffffffffffffffffffffffff1673ffffffffffffffffffffffffffffffffffffffff16815260200190815260200160002060006101000a81548160ff0219169083151502179055507f64a6cb4c2615e9c9ee211131f9fc94aaa6238a3c255423b75ba43ef01ca42dcd81604051808273ffffffffffffffffffffffffffffffffffffffff1673ffffffffffffffffffffffffffffffffffffffff16815260200191505060405180910390a150565b600084600081101515156114c657600080fd5b3373ffffffffffffffffffffffffffffffffffffffff166004600083815260200190815260200160002060009054906101000a900473ffffffffffffffffffffffffffffffffffffffff1673ffffffffffffffffffffffffffffffffffffffff1614151561153357600080fd5b6001151560038281548110151561154657fe5b906000526020600020906002020160000160009054906101000a900460ff16151514151561157357600080fd5b838360008211151561158457600080fd5b6000811015151561159457600080fd5b60011515600560008a8152602001908152602001600020888154811015156115b857fe5b906000526020600020906003020160020160009054906101000a900460ff1615151415156115e557600080fd5b600560008981526020019081526020016000208781548110151561160557fe5b906000526020600020906003020193508584600001819055508484600101819055507fba7f13844d8753c081d55cfeb4062a794faf80eb72a87cab6d2ab49913e892468888604051808381526020018281526020019250505060405180910390a15050505050505050565b611678611aeb565b836000811015151561168957600080fd5b3373ffffffffffffffffffffffffffffffffffffffff166004600083815260200190815260200160002060009054906101000a900473ffffffffffffffffffffffffffffffffffffffff1673ffffffffffffffffffffffffffffffffffffffff161415156116f657600080fd5b6001151560038281548110151561170957fe5b906000526020600020906002020160000160009054906101000a900460ff16151514151561173657600080fd5b838360008211151561174757600080fd5b6000811015151561175757600080fd5b606060405190810160405280878152602001868152602001600115158152509350600560008881526020019081526020016000208490806001815401808255809150509060018203906000526020600020906003020160009091929091909150600082015181600001556020820151816001015560408201518160020160006101000a81548160ff0219169083151502179055505050507fb15cde5e09c0731b6627f4cea855b72816e08cf9fe396ea607bad92bf26a1d66876040518082815260200191505060405180910390a150505050505050565b60608060006001151560038581548110151561184657fe5b906000526020600020906002020160000160009054906101000a900460ff16151514151561187357600080fd5b60056000858152602001908152602001600020805490506040519080825280602002602001820160405280156118b85781602001602082028038833980820191505090505b509150600090505b6005600085815260200190815260200160002080549050811015611908578082828151811015156118ed57fe5b906020019060200201818152505080806001019150506118c0565b8192505050919050565b60038181548110151561192157fe5b90600052602060002090600202016000915090508060000160009054906101000a900460ff16908060010154905082565b61195a611b0f565b600060011515600260003373ffffffffffffffffffffffffffffffffffffffff1673ffffffffffffffffffffffffffffffffffffffff16815260200190815260200160002060009054906101000a900460ff1615151415156119bb57600080fd5b60408051908101604052806001151581526020016000815250915060016003839080600181540180825580915050906001820390600052602060002090600202016000909192909190915060008201518160000160006101000a81548160ff021916908315150217905550602082015181600101555050039050336004600083815260200190815260200160002060006101000a81548173ffffffffffffffffffffffffffffffffffffffff021916908373ffffffffffffffffffffffffffffffffffffffff1602179055507f83c4d69ac27380ce5274b606711fc65fdde6fd6546fccaf0c2623399fad92f40816040518082815260200191505060405180910390a15050565b608060405190810160405280600081526020016000815260200160008152602001600081525090565b60606040519081016040528060008152602001600081526020016000151581525090565b60408051908101604052806000151581526020016000815250905600a165627a7a723058208e594042c14f77982696c6a471a86ee50fc13e607e3c8d6d83575087c488b4340029",
  "source": "pragma solidity ^0.4.24;\nimport \"./StoreFactory.sol\";\n\n\ncontract StoreHelper is StoreFactory {\n\n    modifier ownerOf(uint _storeId) {\n        require(_storeId >= 0);\n        require(storeToOwner[_storeId] == msg.sender);\n        require(stores[_storeId].exists == true);\n        _;\n    }\n\n    modifier validProduct(uint _price, uint _quantity) {\n        require(_price > 0);\n        require(_quantity >= 0); \n        _;\n    }\n\n    event LogNewProduct(uint _storeId);\n    event LogProductUpdate(uint _storeId, uint _productId);\n    event LogProductPurchase(uint _storeId, uint _productId, address _address);\n    event LogWithdrawl(uint _storeId);\n\n    function getProduct(uint _storeId, uint _productId) external view returns(uint _price, uint _quantity) {\n        require(stores[_storeId].exists == true); //Store exists and is open\n        require(storeToProducts[_storeId][_productId].exists == true); //Product exists in the store.\n\n        _price = storeToProducts[_storeId][_productId].price;\n        _quantity = storeToProducts[_storeId][_productId].quantity;\n        return;\n    }\n\n    function getAllProductsByStore(uint _storeId) external view returns(uint[]) {\n        require(stores[_storeId].exists == true); //Store exists and is open\n        \n        uint[] memory _ids = new uint[](storeToProducts[_storeId].length);\n\n        for (uint i = 0; i < storeToProducts[_storeId].length; i++) {\n            _ids[i] = i;\n        }\n        return _ids;\n    }\n\n    function getAllStores() external view returns(uint[]) {\n        uint[] memory _ids = new uint[](stores.length);\n\n        for (uint i = 0; i < stores.length; i++) {\n            _ids[i] = i;\n        }\n        return _ids;\n    }\n\n    function addProducts(uint _storeId, uint _price, uint _quantity)\n    public ownerOf(_storeId) validProduct(_price, _quantity) {\n        Product memory _newProduct = Product(_price, _quantity, true);\n        storeToProducts[_storeId].push(_newProduct);\n        \n        emit LogNewProduct(_storeId);\n    }\n\n    function editProduct(uint _storeId, uint _productId, uint _newPrice, uint _newQuantity) \n    public ownerOf(_storeId) validProduct(_newPrice, _newQuantity) {\n\n        require(storeToProducts[_storeId][_productId].exists == true);\n\n        Product storage _product = storeToProducts[_storeId][_productId];\n        _product.price = _newPrice;\n        _product.quantity = _newQuantity;\n\n        emit LogProductUpdate(_storeId, _productId);\n    }\n\n    function buyProduct(uint _storeId, uint _productId) public payable returns (bool) {\n        require(stores[_storeId].exists == true); //Store exists and is open\n        require(storeToProducts[_storeId][_productId].exists == true); //Product exists in the store.\n        require(storeToProducts[_storeId][_productId].quantity > 0);\n        require(storeToProducts[_storeId][_productId].price == msg.value);\n\n        Receipt memory _receipt = Receipt(_storeId, _productId, \n                                        storeToProducts[_storeId][_productId].price, block.number);\n\n        customerToReceipts[msg.sender].push(_receipt);\n        storeToProducts[_storeId][_productId].quantity--;\n        emit LogProductPurchase(_storeId, _productId, msg.sender);\n        return true;\n    }\n\n    function withdraw(uint _storeId) public ownerOf(_storeId) {\n        require(storeToOwner[_storeId].balance > 0);\n\n        address _storeOwner = storeToOwner[_storeId];\n        uint _storeBalance = stores[_storeId].balance;\n        stores[_storeId].balance = 0;\n\n        if (_storeOwner.send(_storeBalance) == false) {\n            stores[_storeId].balance = _storeBalance;\n        }\n        emit LogWithdrawl(_storeId);\n    }\n\n    // Fallback function - Called if other functions don't match call or\n    // sent ether without data\n    // Typically, called when invalid data is sent\n    // Added so ether sent to this contract is reverted if the contract fails\n    // otherwise, the sender's money is transferred to contract\n    function() public {\n        revert();\n    }\n}",
  "sourcePath": "/Users/cleary/crypto_course/ethereum-storefront/contracts/StoreHelper.sol",
  "compiler": {
    "name": "solc",
    "version": "0.4.24+commit.e67f0147.Emscripten.clang"
  },
  "schemaVersion": "2.0.1",
  "updatedAt": "2018-08-22T23:36:16.078Z"
}